:020000040800F2
:10000000E8440020796B0008090500080B0500088A
:100010000F05000813050008170500080000000080
:100020000000000000000000000000001B050008A8
:100030001D050008000000001F050008210500083C
:10004000936B0008936B0008936B0008936B000898
:10005000936B0008936B0008936B0008936B000888
:10006000936B0008936B0008936B0008936B000878
:10007000936B000835FE0008FD300108936B000803
:1000800063FE0008D1300108936B0008936B0008F1
:10009000410B0108A10B0108936B0008936B00084A
:1000A000936B0008936B0008936B0008936B000838
:1000B000E90C0108590D0108873601089D7A0008EE
:1000C000936B00089F7B0008936B0008936B0008FC
:1000D000936B0008352F0108B12F01082F3001085C
:1000E000936B0008936B0008936B0008936B0008F8
:1000F000936B0008936B0008936B0008936B0008E8
:10010000936B0008936B0008D9360108936B0008C5
:10011000936B0008936B00087D710008936B0008D7
:100120000BFE0008936B0008936B0008D9FD0008D4
:100130001F240108936B0008936B0008936B000861
:10014000290C0108890C0108936B00085B700008FA
:10015000936B0008936B0008A3300108936B0008B1
:10016000936B0008936B00086F70000865700008BF
:10017000936B000851700008936B0008936B0008A4
:10018000936B0008936B000800F002F800F065F82C
:100190000AA090E8000C82448344AAF10107DA45E2
:1001A00001D100F05AF8AFF2090EBAE80F0013F0CF
:1001B000010F18BFFB1A43F001031847AC6201009E
:1001C000CC6201000A444FF0000C10F8013B13F020
:1001D000070408BF10F8014B1D1108BF10F8015BA0
:1001E000641E05D010F8016B641E01F8016BF9D193
:1001F00013F0080F1EBF10F8014BAD1C0C1B09D1EA
:100200006D1E58BF01F801CBFAD505E014F8016B5B
:1002100001F8016B6D1EF9D59142D6D370470000ED
:100220000023002400250026103A28BF78C1FBD8FF
:10023000520728BF30C148BF0B607047782913F0C0
:10024000DF83002070471FB516F004F89DE8030017
:1002500015F00FFC1FBD10B510BD15F0DCFC1146EC
:10026000FFF7F1FF00F016F815F0FAFC03B4FFF702
:10027000F2FF03BC15F02AFD40BA7047C0BA7047C0
:1002800030BF72B6704762B6704780F30888704717
:100290001BA0704710B500F09DF80A2000F012F97D
:1002A0001F48406800F07F40B0F1006F02D11C4849
:1002B00006F08AFD002010BD10B5012012F0DEFA14
:1002C000012013F029FA012010F080FD012011F027
:1002D00091FB012011F0E8FE01200CF033FD01201C
:1002E0000FF0F2FD012012F041FF012012F0B6F8EC
:1002F000012006F0D1FE012013F058FA10BD0000D5
:100300004669637573204634303720485320426F66
:100310006F746C6F616465722076312E302E300000
:10032000000002080146002001E0421C90B208C90A
:10033000002BFAD170477EB5002400252D480068B7
:1003400000902C48001D006801902A480830006881
:100350000290284812300688DDE90001084402991D
:1003600008442549086000BF30E004EB44002349FD
:1003700051F820000199884226D104EB44001F491E
:1003800001EB80004068029988421DD1002511E0F0
:1003900004EB4400194901EB8000806850F8250007
:1003A0000099884204D1B6F5007F01D100207EBDBE
:1003B000681C85B204EB4401104A02EB8101886895
:1003C000FFF7B0FFA842E3DC601CC4B2042CCCD31E
:1003D0000120ECE710B54FF4A06003F05BF800BF1C
:1003E000FFF7A9FF0028FBD1A82000F009F812F0C0
:1003F0000DFD10BD107AFF1F6C010020703A01083E
:1004000010B504466FF0040003F07EF8E11704EB2A
:100410005171C1F3C7013A4A11701046007800EBE0
:100420004001C1EBC0104FF6FF7101EAC000354931
:10043000088010BD02463248007850434FF0E02358
:100440005861002098611846006940F00100186169
:1004500000BF4FF0E020016901F0010018B101F484
:1004600080300028F5D04FF0E020006920F0010036
:100470004FF0E02318610020986170470146214A3F
:1004800012884A434FF0E0235A6100229A611A46CB
:10049000126942F001021A6100BF4FF0E0221069B8
:1004A00000F001021AB100F48032002AF5D04FF0BA
:1004B000E022126922F001024FF0E0231A610022CB
:1004C0009A61704770B504464FF4077094FBF0F0E2
:1004D000C6B24FF4077094FBF0F100FB114085B2F7
:1004E00005E04FF40770FFF7C9FF701EC6B2002E7B
:1004F000F7D115B12846FFF7C1FF002070BD0000FD
:100500000000002002000020704700BFFEE700BF8F
:10051000FEE700BFFEE700BFFEE770477047704789
:100520007047000008B500210091491EC268516063
:100530006FF08041C2685161009921F0004101F1E2
:1005400000410091009921F4006101F500610091E2
:100550000099C268916108BDF8B5044600260025DF
:100560000020009000BF032002F087F8E0680069D7
:100570000090681C0546F949884201D90020F8BD61
:100580000098C00F0028EED00025009820F0010050
:10059000401C00900098E168086100BFE0680069B5
:1005A0000090681C0546ED49884200D904E0009897
:1005B00000F001000028F1D100BF032002F05DF837
:1005C0003046DCE72DE9F04104460026E078B0B97A
:1005D00000270020DD1C4FEAE57805EB98784FEA0C
:1005E000A80704F1D00555F822C000BF04E00D684B
:1005F000CCF80050401C091DB842F8D300BF30466B
:10060000BDE8F081F0B503460024D01CC71700EB0D
:100610009777BD10D3F8D06000BF03E03068086062
:10062000641C091DAC42F9D30846F0BD70B5024602
:100630000C46002300200025D5700125957040252B
:100640009580012C0CD14FF0A0430125D5720825CF
:100650001570042555709D15D580022515720CE086
:100660005CB9BF4B0025D5720C2515700625557059
:100670004FF4A065D58001251572D36003F50065A0
:100680001561002110E003F5106505EB411602F13C
:10069000180545F8216003F5306505EB411602F1B8
:1006A000540545F82160491C55788D42EBD803F577
:1006B000806555614035C2F8CC50002108E003F553
:1006C000A06505EB411602F1900545F82160491C33
:1006D00015788D42F3D8002108E003F5805505EB2D
:1006E000013602F1D00545F82160491C15788D428C
:1006F000F3D803F56065C2F80C5170BD3EB50446F1
:1007000000250020029001900090207A01283DD120
:10071000E068806B0190019820F480300190607A4D
:1007200028B1019820F4801000F580100190019804
:10073000E168886300200290E068C0680290029837
:1007400020F040000290029820F48000029002986D
:1007500020F400300290029820F4002002900298C9
:10076000E168C8602046FFF7F7FEE07801283DD138
:10077000009820F01E000A300090009820F0200021
:10078000203000900098E16888602FE0E068C06841
:100790000290029820F04000403002900298E168F8
:1007A000C8602046FFF7D8FE00200190019820F491
:1007B000803000F580300190019820F4802000F511
:1007C00080200190019820F4002000F50020019085
:1007D000607A28B1019820F4801000F58010019013
:1007E0000198E1688863142001F056FFE078012841
:1007F0000FD1E06880680090009820F01E000A3059
:100800000090009820F02000203000900098E168CF
:10081000886028463EBD08B50146002000220092AF
:10082000009A22F00102521C0092CA689268009B52
:100830001A43CB689A6008BD08B501460020002223
:100840000092009A22F00102521C0092CA6892683B
:10085000009B9A43CB689A6008BDF8B504460D46E4
:100860000026002700200090009820F02000203073
:100870000090009865F38A1000900098E168086184
:1008800000BFE06800690090781C07463349884241
:1008900000D904E00098C0F340100028F1D100BF57
:1008A000032001F0EAFE3046F8BDF8B50446002505
:1008B000002600200090009820F0100010300090DA
:1008C0000098E168086100BFE06800690090701C52
:1008D00006462249884200D904E00098C0F300107F
:1008E0000028F1D100BF032001F0C7FE2846F8BD63
:1008F000F8B504460D460026E068C06800900098F0
:1009000020F000500090009820F080400090012DD1
:1009100006D1009820F0005000F10050009006E051
:100920002DB9009820F0804000F1804000900098A0
:10093000E168C860322001F0AFFE3046F8BD0146E4
:10094000C868406900F00100704700B502461046D3
:10095000FFF7F5FF012805D0012000BD400D030081
:10096000000004400020F8E700B502461046FFF7FB
:10097000E6FF012800D100BD0020FCE70146002071
:10098000CA685069CA689269104070470146C868D1
:100990004068704708B5026912680092009A61F3D6
:1009A00001020092009B0269136008BD38B504463D
:1009B000002500200090E16888616FF08040E168C8
:1009C00048612046FFF7AEFDE07820B9009820F09E
:1009D000100010300090009820F4006000F50060D6
:1009E0000090009820F4805000F58050009000980E
:1009F00020F4005000F500500090009820F4802072
:100A000000F580200090009820F4002000F50020E0
:100A10000090009820F0080008300090009820F422
:100A2000801000F580100090009820F4001000F570
:100A300000100090009820F0804000F1804000906D
:100A4000009820F00400001D0090E0688069009983
:100A500088430843E1688861284638BD70B588B08E
:100A6000044600260020079006900590049003900D
:100A70000021D4F80C0101602069006806900698F6
:100A800020F4C0500690069920690160E07A0128A0
:100A90003FD103212046FFF77DFF8020E1684862B7
:100AA000059880B200F50010059005986FF30F00CF
:100AB000803005900598E1688862059800EB104148
:100AC000049861F30F000490049880B200F50000D0
:100AD00004900498E168C1F80401049800EB104107
:100AE00061F30F000490049880B200F500100490A8
:100AF0000499E068C0F80811049800EB104161F314
:100B00000F000490049880B204900499E068C0F843
:100B10000C11E07A002863D1207A012804D1002149
:100B20002046FFF737FF03E001212046FFF732FFA1
:100B30004FF40070E1684862059880B200F58000CB
:100B4000059005986FF30F0000F50070059005986B
:100B5000E1688862059800EB1041049861F30F008A
:100B60000490049880B200F1BA7004900498E1688F
:100B7000C1F80401049800EB104161F30F000490E8
:100B8000049880B200F5800004900499E068C0F8F1
:100B90000811049800EB104161F30F0004900498D1
:100BA00080B204900499E068C0F80C11049800EB3E
:100BB000104161F30F000490049880B204900499EE
:100BC000E068C0F81011049800EB104161F30F00C9
:100BD0000490049880B204900499E068C0F814115D
:100BE00010212046FFF739FE2046FFF75EFE002168
:100BF0002069016120694161491E206981610021EC
:100C00002069C16100252CE004F1180050F825008E
:100C1000006807900798C00F70B1002007900798F0
:100C200020F0804000F180400790079820F000609D
:100C300000F10060079001E00020079004F1180027
:100C400050F8250007990160002104F1180050F8C0
:100C500025000161FF2104F1180050F82500816092
:100C60006D1C6078A842CFD800252CE004F1540018
:100C700050F82500006801900198C00F70B1002065
:100C80000190019820F0804000F18040019001988F
:100C900020F0006000F10060019001E00020019070
:100CA00004F1540050F8250001990160002104F17D
:100CB000540050F825000161FF2104F1540050F860
:100CC000250081606D1C6078A842CFD80020039079
:100CD000039820F4807000F580700390206900690B
:100CE00003998843084321690861E07801281DD1F0
:100CF00000200290029820F00100401C029002980F
:100D000020F00200801C02904021029861F38A00CA
:100D10000290029820F4803000F580300290029812
:100D200061F3594002900299206901632046FFF760
:100D30003DFE304608B070BD08B5014600200A6986
:100D400092680092009AC2F3410232B1012A06D0A1
:100D5000022A07D0032A07D102E0032006E000BFE1
:100D6000022003E0012001E0022000BF00BF08BD17
:100D70000EB501460020002200920A699268029294
:100D80008A6912680192029AC2F3410232B1012AC1
:100D900005D0022A09D0032A0DD101E000BF00BF0F
:100DA000019A6FF30A0201920AE0019A6FF30A02B4
:100DB000D21C019204E0019A6FF30A02019200BF73
:100DC00000BF019B8A691360009A22F4807202F5C9
:100DD000807200920A695268009B9A431A430B6919
:100DE0005A600EBD3CB502460020002401940094D8
:100DF0004C78012C0CD10D7802F1180454F82530F0
:100E00000D780124AC40009D64F30F0500950BE0C4
:100E10000D7802F1540454F825300D780124AC40CB
:100E2000009D64F31F4500951C680194019CC4F368
:100E3000C034E4B90D89019C65F30A040194CD78AE
:100E4000019C65F3934401948D79019C65F3995459
:100E50000194019C24F0805404F180540194019C7D
:100E600024F4004404F500440194019C1C600C78B7
:100E7000012C08D1D47A34B91469E46B009D2C4359
:100E80001569EC6305E01469E469009D2C4315695C
:100E9000EC613CBD3CB50246002000240194009466
:100EA0004C78012C0CD10D7802F1180454F825303F
:100EB0000D780124AC40009D64F30F0500950BE014
:100EC0000D7802F1540454F825300D780124AC401B
:100ED000009D64F31F450095019C24F40044019497
:100EE000019C1C600C78012C08D1D47A34B91469A7
:100EF000E46B009DAC431569EC6305E01469E4699B
:100F0000009DAC431569EC613CBDFEB505460C4641
:100F100000260027002002900190607801287DD1F2
:100F2000217805F1180050F821000068029021781E
:100F300005F1180050F8210000690190606948B976
:100F400001986FF3120001900121019861F3DC40D8
:100F5000019017E06169019861F3120001906069E6
:100F6000401EA1680844B0FBF1F1019861F3DC4038
:100F70000190E078012805D1019820F0C04000F1EF
:100F800000500190227805F1180050F822000199D4
:100F90000161E878012807D1227805F1180050F89E
:100FA0002200216941610DE0E07801280AD06069E2
:100FB00040B12178012000FA01F72869406B3843DD
:100FC00029694863E078012813D128698068009076
:100FD0000098C0F3002030B9029820F0005000F1D2
:100FE0000050029005E0029820F0805000F18050FF
:100FF0000290029820F0806000F1806002900298D8
:1010000020F0004000F100400290227805F1180025
:1010100050F8220002990160E07800E009E0012820
:1010200070D1A08A83B222782846E168FFF7CAFA15
:1010300068E0217805F1540050F821000068029022
:10104000217805F1540050F8210000690190606991
:1010500050B9A168019861F3120001900121019833
:1010600061F3DC40019017E0A068401E616908440C
:10107000A168B0FBF1F1019861F3DC4001900198A7
:10108000C0F3C940A1684843019960F3120101917E
:101090000198C0F312006061227805F1540050F805
:1010A000220001990161E878012806D1227805F132
:1010B000540050F8220021694161E07801280ED1E6
:1010C000607930B1029820F0005000F10050029099
:1010D00005E0029820F0805000F1805002900298C4
:1010E00020F0806000F180600290029820F00040C3
:1010F00000F100400290227805F1540050F82200DF
:10110000029901603046FEBDFCB502460020002475
:101110000025019500954D78012D52D193691D68E8
:1011200001951D6900954D6955B9009D25F07F0514
:101130000095009D25F4002505F50025009516E095
:101140008E684D69B54207D98D684D610E7A009D54
:1011500066F30605009504E00E7D009D66F3060526
:101160000095009D25F4002505F500250095009DBE
:101170001D61D578012D06D10F7802F1180555F8BB
:1011800027500E696E61019D25F0806505F180652F
:101190000195019D25F0004505F100450195019D52
:1011A0001D60D578002D59D14D69002D56D00E788F
:1011B0000125B5402C4315696D6B25431669756390
:1011C0004CE00E7802F1540555F826502D68019533
:1011D0000E7802F1540555F826502D6900954D6999
:1011E0005DB90E7A009D66F306050095009D25F415
:1011F000002505F5002500950CE08D684D610E7AFF
:10120000009D66F306050095009D25F4002505F573
:10121000002500950F7802F1540555F82750009EDF
:101220002E61D578012D06D10F7802F1540555F8BD
:1012300027500E696E61019D25F0806505F180657E
:101240000195019D25F0004505F1004501950F78B8
:1012500002F1540555F82750019E2E60FCBD38B5AB
:1012600003460A460020002400945478012C18D12B
:10127000157803F1180454F825100C680094009CAC
:10128000E40F2CB1009C24F0804404F180440094CD
:10129000009C24F4001404F500140094009C0C60DD
:1012A0000EE0157803F1540454F825100C680094EE
:1012B000009C24F4001404F500140094009C0C60BD
:1012C00038BD38B503460020002400944C78012C2A
:1012D00005D10D7803F1180454F8252004E00D78A9
:1012E00003F1540454F8252014680094009C24F45D
:1012F00000140094CC78032C02D0CC78022C05D1B9
:10130000009C24F0805404F180540094009C1460EC
:1013100038BD0146086982690869C0690240100C3D
:101320007047024602F1540353F82130986813695C
:101330005B69184070470146086982690869C0699D
:10134000024090B270470CB500210191019921F043
:10135000C04101F1C0410191019921F4002101F541
:1013600000210191019921F07F0118310191019A29
:10137000416D0A61C178012915D10021009100F267
:10138000CC51426D5161416D09680091009921F085
:10139000004101F1004100914FF080210091009A3D
:1013A000416D0A6000BF0CBD3EB504464FF48C7021
:1013B000005970B3206980680190019800F0010025
:1013C00038B3A07A78B1D4F80C0100680090009886
:1013D00020F002000090009820F001000090009999
:1013E000D4F80C01016000200290029820F0010066
:1013F000401C0290206940680299084321694860B6
:10140000052001F049F92069406802998843216963
:1014100048603EBD0CB5817AB9B101698968019116
:10142000019901F0010179B1D0F80C11096800911E
:10143000009921F002010091009921F00101009131
:10144000009AD0F80C110A6000BF0CBD70B50446BC
:1014500001214FF48970015500250BE0FF2104F1B3
:10146000180050F82500816004F1540050F8250060
:1014700081606D1C6078A842F0D80021206901616C
:10148000206941612069C161491E2069816120464E
:10149000FFF70BFA10212046FFF7DFF970BD38B5D2
:1014A00003460020002400944C78012C14D10D78C0
:1014B00003F1180454F8252014680094009CC4F328
:1014C00040540CB110201EE0009CC4F340440CB109
:1014D000202018E0302016E00D7803F1540454F871
:1014E000252014680094009CC4F3405414B14FF4B8
:1014F000805008E0009CC4F3404414B14FF4005005
:1015000001E04FF4405038BDF8B507460D4614468B
:1015100000200090687801287DD1297807F1180013
:1015200050F8216030680090102C04D129463846CC
:10153000FFF795FEF8BD202C06D1009820F0006042
:1015400000F10060009066E0302C1DD10098C0F3DF
:10155000405030B10020687129463846FFF7B1FE8F
:10156000E8E7009820F0806000F18060009000982B
:1015700020F4004000F500400090009820F000406A
:1015800000F10040009046E024B9009820F40040AB
:10159000009040E0297807F1540050F8216030684D
:1015A0000090B4F5805F06D1009820F4001000F59B
:1015B000001000902FE0B4F5005F06D1009820F0F5
:1015C000006000F10060009025E0B4F5405F1DD19F
:1015D0000098C0F3405030B1002068712946384669
:1015E000FFF76FFEA6E7009820F0806000F18060B2
:1015F0000090009820F4004000F500400090009812
:1016000020F0004000F10040009004E01CB9009878
:1016100020F4004000900098306000BF8AE72DE978
:10162000F04106460F4639463046FEF7FFFF0121DE
:101630004FF4897081550021801C8155002511E0EF
:1016400005EB850106F58E7000EBC104012060708A
:101650002570E5800020E0704020A0600020E06060
:1016600060616D1C7078A842EAD8002510E005EB97
:10167000850106F55D7000EBC104002060702570E7
:10168000E580E0704020A0600020E06060616D1C9B
:101690007078A842EBD83046FFF7CEF83046FFF717
:1016A0002DF800213046FFF723F93046FFF7D6F931
:1016B0003046FFF7B0F8BDE8F0812DE9F04106466D
:1016C0000D4690461F4605F08000802808D105F0A1
:1016D0007F0000EB800106F58E7000EBC10407E08F
:1016E00005F07F0000EB800106F55D7000EBC104A2
:1016F00005F07F00207005F08000C0096070C4F81C
:101700000880E770607808B12078E080022F01D16E
:101710000020207121463046FFF764FB0020BDE821
:10172000F08170B506460C4604F08000802808D190
:1017300004F07F0000EB800106F58E7000EBC10520
:1017400007E004F07F0000EB800106F55D7000EB20
:10175000C10504F07F00287004F08000C0096870A3
:1017600029463046FFF796FB002070BD2DE9F04179
:1017700005460E461746984606F07F0000EB8001AE
:1017800005F55D7000EBC104E760C4F8148000202B
:10179000A061607006F07F002070E878012800D119
:1017A0002761207820B921462846FFF7ADFC03E0E9
:1017B00021462846FFF7A9FB0020BDE8F0812DE96E
:1017C000F04107460D461646984605F07F0000EBAF
:1017D000800107F58E7000EBC1040120607005F0F8
:1017E0007F002070E66026610020A061C4F81480AC
:1017F000207820B921463846FFF786FC03E02146D1
:101800003846FFF782FB0020BDE8F08170B5064640
:101810000C4604F08000802808D104F07F0000EB23
:10182000800106F58E7000EBC10505E004EB840134
:1018300006F55D7000EBC1050120A87004F07F0083
:101840002870C4F3C010687029463046FFF707FDC2
:10185000002070BD70B506460C4604F0800080285C
:1018600008D104F07F0000EB800106F58E7000EBDC
:10187000C10505E004EB840106F55D7000EBC105D0
:101880000020A87004F07F002870C4F3C0106870B6
:1018900029463046FFF715FD002070BD70B505469E
:1018A0000C4604F08000802805D104F07F01284612
:1018B000FEF7D3FF02E02846FEF7F7FF002070BDD9
:1018C00008B500220092009A61F30A1200920269A0
:1018D0001268009B1A4303691A6008BD38B50446B4
:1018E000206940680090009820F002000090009964
:1018F00020694160032000F0CFFE38BD38B50446B2
:10190000206940680090009820F00200801C009040
:10191000009920694160032000F0BEFE38BD2DE92A
:10192000F04105460C46002704F08000802808D1CD
:1019300004F07F0000EB800105F58E7000EBC1061E
:1019400005E004EB840105F55D7000EBC10631464E
:101950002846FFF7A4FD07463846BDE8F0812DE98B
:10196000F04105460C46174604F08000802808D157
:1019700004F07F0000EB800105F58E7000EBC106DE
:1019800005E004EB840105F55D7000EBC1063A4605
:1019900031462846FFF7B8FDBDE8F0811CB5044686
:1019A000A06D8068019001982169D1F884100840E9
:1019B0000190019800F00100E8B100200190019829
:1019C00020F00100401C01900199A06D8160E07839
:1019D00001280AD1A06D00690090D4F8B0030099E5
:1019E000C1F31201411AC4F8B413FB480068012185
:1019F0000268204690470198C0F3400048B100209B
:101A00000190019820F00200801C01900199A06DC6
:101A1000816001201CBD2DE9F84306460F460025D4
:101A20000020009007EB870106F58E7000EBC104E3
:101A3000D4E90501451AA068A84200D2A568E81CAF
:101A40004FEA900906F1180050F8270080690090CD
:101A500029E0D4E90501451AA068A84200D2A5688A
:101A6000E81C4FEA9009ABB2FAB23046E168FEF7E3
:101A7000A9FDE0682844E060A0692844A06106F15F
:101A8000180050F8270080690090D4E905018842C9
:101A900009D12178012000FA01F83069406B20EA71
:101AA000080031694863009880B2484506D9D4E9F6
:101AB0000510884202D260690028CAD10120BDE821
:101AC000F883F8B504462069466C2069476BC7F374
:101AD000400046EAC016E0698068304000900098F7
:101AE00000F00100A8B102252069406BA8432169DC
:101AF000486300200090009820F00100401C0090F6
:101B00000099E0698160B44800680121426820467C
:101B100090470098C0F3400048B100200090009822
:101B200020F00200801C00900099E069816000981C
:101B3000C0F3C00048B100200090009820F00800D9
:101B4000083000900099E06981600098C0F30010AF
:101B500048B100200090009820F010001030009054
:101B60000099E06981600098C0F3801048B10020BE
:101B70000090009820F04000403000900099E0690B
:101B800081600098C0F3C01018B101212046FFF712
:101B900042FF0120F8BD38B50446E0684068009077
:101BA0000098C0F3800020B18B480068816A20460D
:101BB00088470098E1684860012038BD38B5044680
:101BC00085480068416A20468847002000900098B8
:101BD00020F0804000F1804000900098E16848616A
:101BE000012038BD38B50446002000907A480068CE
:101BF000016A20468847009820F4001000F5001084
:101C000000900098E1684861012038BD38B504466D
:101C10000020009070480068C169204688470098FD
:101C200020F4801000F5801000900098E168486171
:101C3000012038BD30B587B00546684C2846FFF70F
:101C400097F801A801F079FD029CE868C06805904A
:101C5000059820F4705005900598E968C8602846FA
:101C6000FFF76AF803280BD10020A8704FF400702A
:101C7000A880059820F4705000F5105005907EE083
:101C80000120A8704020A8805548844209D35548B7
:101C9000844206D2059820F4705000F560500590FB
:101CA0006DE05048844209D34F48844206D20598DB
:101CB00020F4705000F55050059060E04A4884428E
:101CC00009D34A48844206D2059820F4705000F5A2
:101CD0004050059053E04548844209D3444884422B
:101CE00006D2059820F4705000F53050059046E07B
:101CF0003F48844209D33F48844206D2059820F4E5
:101D0000705000F52050059039E03A48844209D3DC
:101D10003948844206D2059820F4705000F51050DE
:101D200005902CE03448844209D33448844206D2DA
:101D3000059820F4705000F5005005901FE02F48E2
:101D4000844209D32E48844206D2059820F470506C
:101D500000F5E050059012E02948844209D3294853
:101D6000844206D2059820F4705000F5C0500590CA
:101D700005E0059820F4705000F5A05005900598F6
:101D8000E968C86000200690069820F4005000F52D
:101D9000005006900698E9684861012007B030BD00
:101DA00030B587B00446002002900690059004905C
:101DB00003900190029820F00100401C02902069DD
:101DC0004068029988432169486000212046FEF757
:101DD00044FD002524E00000E4000020007A030A0E
:101DE000C0E1E4000024F400E0EC040100C31801A9
:101DF000002D310140A44C0100366E0140E29501F6
:101E000080C3C90160600B02FF2104F1180050F883
:101E10002500816004F1540050F8250081606D1C9C
:101E20006078A842F0D84FF0FF31206981610698B0
:101E30006FF30F00401C0690069880B200F58030CA
:101E4000069006992069C161059820F008000830C5
:101E50000590059820F00100401C0590059820F0A1
:101E60000200801C0590059920694161E07A18B94B
:101E700005992069C0F88410049820F00100401CE6
:101E80000490049820F0080008300490049820F092
:101E90000200801C0490049920690161E07A10B965
:101EA000049920694164206900680390039820F434
:101EB000FE6003900399206901602046FFF743FA12
:101EC00000200190019820F4805000F5805001908E
:101ED0000198E1684861FE4800680169204688472A
:101EE000012007B030BD7CB5044600200190019868
:101EF00020F0100010300190E0688069019988435B
:101F0000E1688861E068006A0090009800F00F00C6
:101F100000EB800104F55D7000EBC1050098C0F393
:101F2000434007282DD2DFE800F02C04051D1E2CAD
:101F30001F0027E00098C0F30A1090B10098C0F38A
:101F40000A122046E968FEF75DFBE8680099C1F3D4
:101F50000A110844E860A8690099C1F30A1108440D
:101F6000A8610FE00EE00DE0082204F2CC512046FB
:101F7000FEF748FBA8690099C1F30A110844A8615B
:101F800000E000BF00BFE068806901990843E16894
:101F9000886101207CBD38B50446CD480068C16821
:101FA0002046884700200090009820F00800083064
:101FB00000900098E1684861012038BD1FB50446D3
:101FC000002000904FF48970005D0090C0480068C8
:101FD000416920468847206980680190002003906D
:101FE000039820F4006000F5006003900398E16816
:101FF0004861A07A70B3019800F0010050B340F23C
:102000001510005D012825D19DF80000032821D17D
:1020100000200290029820F00100401C0290D4F8A9
:102020000C01006802990843D4F80C11086002986A
:1020300020F00200801C0290D4F80C010068029984
:102040000843D4F80C110860A248006840F006006C
:10205000A0490860012004B010BD3EB50446A07A36
:1020600078B1D4F80C0100680090009820F00200CC
:102070000090009820F0010000900099D4F80C0125
:10208000016000200190019820F00100401C0190A7
:102090002069406801998843216948608C4800683C
:1020A00081692046884700200290029820F0004075
:1020B00000F1004002900298E168486101203EBDB5
:1020C00030B5024615692B6915696C6B24FA01F568
:1020D00005F0010543EAC51302F1180555F8215032
:1020E000AD6805EA030030BDF8B5054600240020C0
:1020F00000902846FFF71FF9064681E006F0010030
:1021000000287BD0E1B22846FFF7DAFF0090009864
:1021100000F0010030B3012000FA04F72869406B99
:10212000B8432969486300200090009820F001001E
:10213000401C009005F1180050F8240000998160BF
:10214000E1B263480068426828469047E878012871
:1021500008D13CB940F21110405D042802D1284654
:10216000FFF7F1F80098C0F3C00060B100200090C4
:10217000009820F008000830009005F1180050F891
:102180002400009981600098C0F3001060B1002025
:102190000090009820F010001030009005F1180019
:1021A00050F82400009981600098C0F3801060B15D
:1021B00000200090009820F040004030009005F191
:1021C000180050F82400009981600098C0F3400086
:1021D00060B100200090009820F00200801C009068
:1021E00005F1180050F82400009981600098C0F3B0
:1021F000C01018B121462846FFF70DFC641C760874
:10220000002E7FF47BAF0120F8BD7CB5044600258D
:10221000002001902046FFF77CF8064674E006F0A7
:10222000010000286ED0E9B22046FFF77AF801904D
:10223000019800F00100C8B300200190019820F03F
:102240000100401C019004F1540050F82500019950
:102250008160E078012817D104F1540050F825007E
:102260000069009005EB850104F55D7000EBC1008D
:1022700080680099C1F31201411A05EB850204F54B
:102280005D7000EBC2008161E9B21148006802682C
:1022900020469047E078012808D13DB940F211105E
:1022A000005D052802D12046FFF74DF80198C0F3E4
:1022B000400060B100200190019820F00200801CD5
:1022C000019004F1540050F825000199816003E069
:1022D000E400002010ED00E00198C0F3C00088B1D8
:1022E0004B4800688168204688470020019001988B
:1022F00020F008000830019004F1540050F8250047
:10230000019981606D1C7608002E88D101207CBD6A
:102310007CB5054600242846FEF717FB002875D03B
:102320002846FEF72BFB0190019808B900207CBDE0
:102330000198C0F3C04018B12846FFF766FF044378
:102340000198C0F3804018B12846FFF7CDFE044342
:102350000198C0F3400050B100200090009820F098
:102360000200801C00900098E968486100BF019855
:10237000C00F18B12846FFF770FE04430198C0F360
:10238000C02018B12846FFF719FE04430198C0F396
:10239000C00018B12846FFF7FEFD04430198C0F3C2
:1023A000001018B12846FFF79EFD04430198C0F3C2
:1023B000003018B12846FFF7F3FC04430198C0F33E
:1023C000403018B12846FFF735FC04430198C0F3AC
:1023D000005018B12846FFF719FC04430198C0F3D8
:1023E000405018B12846FFF7FDFB04430198C0F3A5
:1023F000807018B12846FFF7E1FB04430198C0F351
:10240000800018B12846FFF7C6FB044320468EE73C
:10241000E40000201CB50446E07A012854D10121D3
:10242000084601F01DFA4FF4C850009003208DF8C3
:10243000050002208DF8040000208DF806008DF8BC
:1024400007006946994801F07BF80A22082197485D
:1024500001F0CBF80A220B21944801F0C6F80A22B9
:102460000C21924801F0C1F84FF400700090032055
:102470008DF8050000208DF8040001208DF806007D
:1024800000208DF807006946884801F059F84FF49C
:102490008060009001208DF806008DF80700032071
:1024A0008DF805006946814801F04AF80A22114674
:1024B0007E4801F09AF80121880301F015FA012104
:1024C000802001F0DEF99EE0E07A0028FBD10121B6
:1024D000072001F0C5F90A220321744801F085F8AC
:1024E0000A220521714801F080F80A220021704873
:1024F00001F07BF80A2201216D4801F076F80A22EA
:1025000005216B4801F071F80A221146684801F074
:102510006CF80A220B21664801F067F80A220C21A8
:10252000634801F062F80A220D21614801F05DF86C
:102530000A2203215F4801F058F80A2202215D486F
:1025400001F053F80A2200215A4801F04EF82020E9
:10255000009003208DF8050002208DF804006946E4
:10256000524800F0EDFF0820009003208DF8050090
:1025700002208DF8040000208DF806008DF8070079
:1025800069464A4800F0DCFF43F6234000900320F0
:102590008DF8050002208DF8040000208DF806005B
:1025A0008DF807006946424800F0CAFF01200090FC
:1025B00003208DF8050002208DF8040069463D488F
:1025C00000F0BEFF0820009003208DF805000220D7
:1025D0008DF804006946374800F0B2FF04200090EF
:1025E00003208DF8050002208DF80400694631486B
:1025F00000F0A6FF01214FF0C04001F031F90121A8
:10260000080701F0B5F91CBD38B504464FF4407019
:1026100000F040FFE07A18B94D208DF8000005E089
:10262000E07A012802D143208DF8000001208DF8C6
:1026300001008DF802008DF80300684600F02FFFBE
:10264000E07AC8B94A208DF8000001208DF8010019
:102650008DF802008DF80300684600F020FF4B2043
:102660008DF8000001208DF801008DF802008DF832
:102670000300684600F013FF38BD10B50022C0EB20
:102680000013DB000724B3FBF4F100BF531C1A4610
:102690008B4200D910BDF9E710B504464FF47A71AA
:1026A00004FB01F0FFF7E9FF10BD0000000002404D
:1026B00000040240000802402DE9F04104460E46A5
:1026C00015460027C4F83C51C4F83851022140F2A5
:1026D000111001552B46324600212046FFF76FF8B6
:1026E0003846BDE8F0812DE9F04106460C46154616
:1026F00000272B46224600213046FFF760F8384677
:10270000BDE8F0812DE9F04104460E46154600274C
:10271000C4F89453C4F89053032140F211100155AA
:102720002B46324600212046FFF720F83846BDE808
:10273000F0812DE9F04106460C46154600272B4650
:10274000224600213046FFF711F83846BDE8F081F7
:1027500070B504460025042140F2111001550023F4
:102760001A4619462046FFF72AF82046FEF7EBFDE9
:10277000284670BD70B504460025052140F21110B1
:10278000015500231A4619462046FEF7EFFF204662
:10279000FEF7D9FD284670BD024601EB810302F524
:1027A0005D7000EBC300008B80B2704770B50446CB
:1027B0000D4680212046FFF729F800212046FFF72B
:1027C00025F82046FEF7BFFD70BD70B504460D46E6
:1027D0004FF48970005D022802D0032812D100E076
:1027E00000BF688801280CD100214FF48C70015182
:1027F000D4F8E40529468268204690472046FFF732
:10280000A7FF04E029462046FFF7D0FF00BF00BF26
:1028100070BDF8B504460D460026688801280DD124
:1028200001214FF48C700151D4F8E40529468268E7
:10283000204690472046FFF78BFF3FE0688802283C
:102840003CD12879D0BB206940680090A888061246
:10285000062E22D2DFE806F02103090F151B00988F
:1028600020F07000103000901DE0009820F0700003
:102870002030009017E0009820F070003030009079
:1028800011E0009820F07000403000900BE00098BC
:1028900020F070005030009005E0009820F07000AB
:1028A0001030009000BF00BFF64800990160012180
:1028B0004FF48B7001552046FFF74AFFF8BD70B505
:1028C00004460D464FF48970005D022802D00328AB
:1028D00013D100E000BF0120EB4908604FF48C7079
:1028E000005920B10846006840F00200086002224A
:1028F000E5492046FFF7E0FE04E029462046FFF7C1
:1029000055FF00BF00BF70BD70B504460D46E88896
:10291000012804D029462046FFF748FF1AE04FF46B
:102920008970005D022802D003280DD105E0012244
:10293000D6492046FFF7C0FE0BE0012204F588715E
:102940002046FFF7B9FE04E029462046FFF72EFF98
:1029500000BF00BF70BD70B504460D46A878CC49D5
:10296000087008460078012804DD29462046FFF754
:102970001DFF55E04FF48970005D022802D0032846
:1029800048D117E0C248007880B1C148007884F887
:10299000100103214FF489700155BD48017820468C
:1029A00000F087FC2046FFF7D3FE02E02046FFF749
:1029B000CFFE34E0B648007880B902214FF4897028
:1029C0000155B348007884F81001B14801782046D9
:1029D00000F07EFC2046FFF7BBFE1AE094F81001E1
:1029E000AB490978884211D094F81011204600F0C4
:1029F0006FFCA748007884F81001A54801782046AC
:102A000000F057FC2046FFF7A3FE02E02046FFF748
:102A10009FFE04E029462046FFF7C8FE00BF00BF26
:102A200070BD70B504460D46A88818BBE88808BB81
:102A3000A87800F07F064FF48970005D032804D168
:102A400029462046FFF7B2FE18E04FF48A7006557B
:102A500031462046FEF734FF2046FFF779FE26B1C7
:102A600002214FF48970015508E001214FF489706B
:102A7000015503E029462046FFF798FE70BDF8B5E2
:102A800004460E46F08800907088001208287DD217
:102A9000DFE800F0A2040C28A2A2678AA078D4F88C
:102AA000EC150A686946904705469AE0A178D4F883
:102AB000E4056A46836A204698470546E07A60B98D
:102AC000A078012809D1207A012806D1A078D4F86D
:102AD000E415CA6A69469047054602206870C4F842
:102AE000F0557EE0B078062834D2DFE800F0030B22
:102AF000131B232BA078D4F8EC154A68694690473D
:102B000005462CE0A078D4F8EC158A686946904711
:102B1000054624E0A078D4F8EC15CA6869469047C9
:102B200005461CE0A078D4F8EC150A696946904780
:102B3000054614E0A078D4F8EC154A696946904738
:102B400005460CE0A078D4F8EC158A6969469047F0
:102B5000054604E031462046FFF728FEF8BD00BFD9
:102B60003FE0E07AD8B9A078A0B9A178D4F8E4051C
:102B70006A46836A204698470546A87B45490871FE
:102B8000E87B4871287C88710D4600E024E00A202B
:102B9000009026E031462046FFF708FEDEE731468A
:102BA0002046FFF703FED9E7E07A80B9A07848B95C
:102BB000A078D4F8E415CA6A69469047054607210B
:102BC00069700EE031462046FFF7F0FDC6E731465A
:102BD0002046FFF7EBFDC1E731462046FFF7E6FD53
:102BE000BCE700BFBDF8000088B1F08878B1F0887C
:102BF000BDF80010884202DDBDF8000000E0F0885A
:102C00000090BDF8002029462046FFF755FD00BF83
:102C1000A4E770B505460C46002660780A2829D23C
:102C2000DFE800F01923281E280A0528140F214682
:102C30002846FFF724FF22E021462846FFF7F1FE51
:102C40001DE021462846FFF786FE18E0214628466B
:102C5000FFF75AFE13E021462846FFF730FE0EE04C
:102C600021462846FFF7D5FD09E021462846FFF713
:102C7000ACFD04E021462846FFF798FD00BF00BFE9
:102C8000304670BDB4000020100000200C00002071
:102C9000140000201601002070B504460D460026E1
:102CA0004FF48970005D032814D1287901280CDCC9
:102CB000D4F8E4052946826820469047E88840B960
:102CC0003EB92046FFF744FD03E029462046FFF7C2
:102CD0006DFD04E029462046FFF768FD00BF00BFF8
:102CE000304670BD2DE9F04105460E460027347987
:102CF000307800F06000202808D1D5F8E40531468E
:102D00008268284690473846BDE8F08170780028F0
:102D100057D001282BD0032875D14FF48970405D1E
:102D2000022802D003281BD107E02CB1802C03D04D
:102D300021462846FEF76AFD17E0708830B92CB1AD
:102D4000802C03D021462846FEF760FDD5F8E40527
:102D500031468268284690472846FFF7F9FC04E090
:102D600031462846FFF722FD00BF00BF70E04FF458
:102D70008970405D022802D003281BD107E02CB1E6
:102D8000802C03D021462846FEF740FD17E07088CE
:102D900078B95CB1802C09D021462846FEF75AFD4F
:102DA000D5F8E40531468268284690472846FFF763
:102DB000CFFC04E031462846FFF7F8FC00BF00BF17
:102DC00046E04FF48970405D022802D0032837D1D5
:102DD00007E02CB1802C03D021462846FEF716FDD3
:102DE00033E004F08000802812D104F07F0000EB73
:102DF000800105F58E7000EBC100807820B10120C4
:102E00004049086016E022E000203E49086011E0D9
:102E100004F0800070B904EB840105F55D7000EBEF
:102E2000C100807818B101203649086002E0002016
:102E300034490860022233492846FFF73DFC04E08C
:102E400031462846FFF7B2FC00BF00BF00E000BFDC
:102E500000BF384658E790F8CC250A7090F8CD2589
:102E60004A7090F8CE3590F8CF2503EB02224A80C5
:102E700090F8D03590F8D12503EB02228A8090F8A3
:102E8000D23590F8D32503EB0222CA80CB884FF4C9
:102E9000A0721350012340F21112135470470146DF
:102EA000002002E0421CD0B2491C0A78002AF9D165
:102EB00070472DE9F04104460D4617460026FCB147
:102EC0002046FFF7ECFF022101EB400038803A7802
:102ED0003046711CCEB22A5403223046711CCEB249
:102EE0002A540AE014F8012B3046711CCEB22A5441
:102EF00000223046711CCEB22A5420780028F1D12D
:102F0000BDE8F0810800002070B504460025E07A95
:102F1000012801D1402503E0E07A08B94FF400759B
:102F200002232A4681212046FEF7C7FB02232A46B8
:102F300001212046FEF7C1FB4FF400732A4A01210C
:102F40002046FEF713FC70BD70B504460D462046C2
:102F5000FFF7DAFF002070BD70B504460D468121F1
:102F60002046FEF7DEFB01212046FEF7DAFB0020BB
:102F700070BD0246012902D101201C4B18700020AF
:102F8000704770B505460C46012C0BD121462846EA
:102F9000FFF702FC164908606302134A0121284624
:102FA000FEF7E4FB002070BD0346D87A18B9202054
:102FB000108010487047D87A012803D12020108053
:102FC0000D48F7E70020F5E770B504460D461646B4
:102FD000324629462046FFF7E7FF70BD0246202013
:102FE0000880064870470000EC030020180000200D
:102FF0001C000020540000207400002094000020D9
:103000000146002070472DE9F04104460F46154661
:103010001E46DDF818802046FFF7FCF92046FFF732
:10302000EFFFC4F8E465C4F8E885C4F8EC55394608
:103030002046FEF7F4FAD4F8E815086880472046E1
:10304000FFF7E2FABDE8F0811CB504466946204668
:10305000FFF701FF9DF8000000F01F0020B10128DC
:1030600007D002280FD109E069462046FFF7D1FDBD
:1030700011E069462046FFF70FFE0CE06946204646
:10308000FFF730FE07E09DF8000000F080012046C9
:10309000FEF7BCFB00BF00BF00201CBD70B505469D
:1030A0000E46A6BB05F55D7440F21110405D032885
:1030B0003DD1A168E069884217D9A168E069401A4A
:1030C000E061E878012803D1D4E902100844E06007
:1030D000A368E069984201D2E06900E0A06882B28A
:1030E0002846E168FFF725FB21E0D5F8E4050069F3
:1030F00048B14FF48970405D032804D1D5F8E40548
:103100000169284688472846FFF722FB0FE0FFE7C2
:10311000D5F8E405806950B14FF48970405D03280B
:1031200005D1D5F8E405314682692846904700204C
:1031300070BD0146844802680869426000207047FB
:1031400070B505460E46002E5DD105F58E7440F231
:103150001110405D022849D1A168E069884217D961
:10316000A168E069401AE061E878012803D1D4E958
:1031700002100844E060A08B82B22846E168FFF7A5
:10318000B2FA00231A4619462846FEF7EFFA2DE058
:10319000A168206AB0FBF1F201FB1200A8B9A16896
:1031A000206A884211D3D4E9080188420DD2002256
:1031B00011462846FFF797FA0020606200231A465E
:1031C00019462846FEF7D2FA10E0D5F8E405C068A3
:1031D00048B14FF48970405D032804D1D5F8E40567
:1031E000C168284688472846FFF7C4FA4FF48B7019
:1031F000405D012816D12846FFF79BFF00214FF4C0
:103200008B7041550EE0D5F8E405406950B14FF49C
:103210008970405D032805D1D5F8E405314642693F
:1032200028469047002070BD10B504460023402278
:1032300019462046FEF741FA00234022802120460D
:10324000FEF73BFA01214FF489700155A078D4F8BC
:10325000E82551688847002010BD10B50446D4F811
:10326000E8150869804740F21310015D401E0155C2
:1032700003210155002010BD10B504464FF489709C
:10328000015D401C01550421401E0155D4F8E8158C
:10329000C8688047002010BD10B50446D4F8E40586
:1032A000C06920B1D4F8E405C169204688470020F0
:1032B00010BD70B504460D46D4F8E40529460268F1
:1032C00020469047D4F8E81588688047002070BDF4
:1032D00070B504460D46D4F8E405294642682046F8
:1032E0009047002070BD10B50446D4F8E405016A8B
:1032F00020468847002010BD10B50446D4F8E405E8
:10330000416A20468847002010BD10B50446D4F815
:10331000E81548698047012140F215100155002049
:1033200010BD10B50446D4F8E81588698047D4F874
:10333000E4050021426820469047002140F2151024
:103340000155002010BD0000B400002002461220EC
:103350000880304870470246042008802E48704795
:1033600070B505460C462DB922462C492CA0FFF716
:10337000A0FD04E02246294929A0FFF79AFD27482D
:1033800070BD70B505460C462246244927A0FFF7BC
:1033900090FD224870BD38B504460D4626480068A9
:1033A00000902548001F0368001F026823A12748DA
:1033B00010F0EAFA2CB92A4618492448FFF779FD9B
:1033C00004E02A4615492148FFF773FD134838BD2C
:1033D00070B505460C462DB9224610491CA0FFF7D2
:1033E00068FD04E022460D4919A0FFF762FD0B4875
:1033F00070BD70B505460C462DB92246074917A089
:10340000FFF757FD04E02246044914A0FFF751FDE1
:10341000024870BD0401002020010020EC070020BC
:10342000565447696E6B676F0000000056696577F8
:10343000546F6F6C00000000187AFF1F253034585D
:10344000253034582530345800000000EB080020A7
:10345000565420436F6E6669670000005654204939
:103460006E7465726661636500000000704710B19C
:10347000012802D100E001E000E000BF00BF70477A
:1034800001200349087070477047704770477047C4
:103490002401002026490143264A1160704770B577
:1034A000002100230F22C4781CB3224C246804F4AA
:1034B000E064C4F5E064C4F30721C1F10404E3B29D
:1034C0000A4144789C40E1B28478144021430C07BF
:1034D000210E194C05786155047804F01F0501246C
:1034E000AC4005786D11AD0005F1E025C5F800414F
:1034F00009E0047804F01F050124AC400F4D067864
:10350000761145F8264070BD042808D14FF0E0211F
:10351000096941F004014FF0E022116107E04FF02A
:10352000E021096921F004014FF0E02211617047A8
:103530000000FA050CED00E000E400E080E100E0AE
:10354000F0B50A4600210023002400BF3DE001251C
:1035500005FA01F3156805EA03049C4234D10568B5
:103560004F000326BE40B543056015794E00B540B7
:103570000668354305601579012D02D01579022DB5
:1035800016D185684F000326BE40B5438560557946
:103590004E00B540866835438560456801268E40FB
:1035A000B5434560456896798E40B6B2354345606F
:1035B000C5684F000326BE40B543C560D5794E00AF
:1035C000B540C6683543C560491C1029BFD3F0BD5E
:1035D0000246002013690B400BB1012000E00020DF
:1035E00070470183704741837047F0B50023002482
:1035F0004D07ED0E02FA05F3CE1000F1200555F847
:1036000026504E07F70E0F26BE40B543CF1000F1EF
:10361000200646F82750CE1000F1200555F8265018
:1036200045EA0304CE1000F1200545F82640F0BD20
:10363000FA49086070470021F94A11701170012899
:1036400002D0042808D103E00121F54A117004E0FA
:103650000521F34A117000E000BF00BF7047F14937
:103660000860704770B5049C41EA82150126C6EBDC
:10367000530645EA0645054345EA0465E84E6C3EB7
:10368000356070BDE54908667047820142EA017203
:10369000E34B14331A607047E04988667047DF498E
:1036A000C864704702460020DD4B683B186820F074
:1036B000EC6042EA01031843D94B683B186070473D
:1036C00002460020D64B683B186820F0784042EA5A
:1036D00001031843D24B683B186070470146002035
:1036E000CF4A683A106820F0030008431060704722
:1036F000CB486838006800F00C0070470146002095
:10370000C74A683A106820F0F0000843106070471C
:1037100001460020C24A683A106820F4E05008438D
:103720001060704701460020BD4A683A106820F4D6
:10373000604040EAC10010607047F0B500210022EF
:103740000024022500260223B54F683F3F6807F09A
:103750000C0121B1042905D0082937D105E0B24F69
:10376000076036E0B14F076033E0AD4F6C3F3F6814
:10377000C7F38056AA4F6C3F3F6807F03F036EB116
:10378000AA4FB7FBF3F7DFF898C2ACF16C0CDCF88A
:1037900000C0CCF3881C07FB0CF40CE0A24FB7FB75
:1037A000F3F7DFF87CC2ACF16C0CDCF800C0CCF3B2
:1037B000881C07FB0CF49A4F6C3F3F68C7F3014726
:1037C0007F1C7D00B4FBF5F7076002E0964F0760B1
:1037D00000BF00BF924F683F3F6807F0F001090942
:1037E000934F7A5C0768D74047608D4F683F3F68CA
:1037F00007F4E051890A8E4F7A5C4768D7408760AA
:10380000874F683F3F6807F46041490B884F7A5CF7
:103810004768D740C760F0BD002100F44072B2F5A0
:10382000407F0AD17E4A683A116821F4F811814A32
:10383000024011437A4A683A1160794A1268C0F32B
:103840000B031A43764B1A60704776494439086077
:10385000704774494039086070477749086070477D
:1038600039B16F4A403A126802436D4B403B1A60CF
:1038700006E06B4A403A12688243694B403B1A604B
:10388000704739B1664A3C3A12680243644B3C3B8C
:103890001A6006E0624A3C3A12688243604B3C3B45
:1038A0001A60704739B15E4A383A126802435C4B7D
:1038B000383B1A6006E05A4A383A12688243584B3D
:1038C000383B1A60704739B1554A303A12680243A2
:1038D000534B303B1A6006E0514A303A126882433B
:1038E0004F4B303B1A60704739B14D4A2C3A126841
:1038F00002434B4B2C3B1A6006E0494A2C3A1268B3
:103900008243474B2C3B1A60704739B1444A603AB6
:1039100012680243424B603B1A6006E0404A603A3C
:10392000126882433E4B603B1A60704739B13C4A93
:103930005C3A126802433A4B5C3B1A6006E0384A34
:103940005C3A12688243364B5C3B1A60704739B16F
:10395000334A583A12680243314B583B1A6006E02A
:103960002F4A583A126882432D4B583B1A607047D1
:1039700039B12B4A503A12680243294B503B1A6026
:1039800006E0274A503A12688243254B503B1A60A2
:10399000704739B1224A4C3A12680243204B4C3BE3
:1039A0001A6006E01E4A4C3A126882431C4B4C3B9C
:1039B0001A60704739B11A4A203A12680243184B0C
:1039C000203B1A6006E0164A203A12688243144BE4
:1039D000203B1A60704739B1114A1C3A1268024301
:1039E0000F4B1C3B1A6006E00D4A1C3A12688243DA
:1039F0000B4B1C3B1A60704739B1094A183A1268E0
:103A00000243074B183B1A6006E0054A183A126851
:103A10008243034B183B1A60704700000000474286
:103A200070380240800E47420024F40000127A00F1
:103A300044010020FFFCFF0F5C01474229B1324ADC
:103A400012680243304B1A6004E02F4A1268824326
:103A50002D4B1A60704739B12B4A121D1268024370
:103A6000294B1B1D1A6006E0274A121D126882436B
:103A7000254B1B1D1A60704739B1234A533A1278FF
:103A80000243214B533B1A7006E01F4A533A127807
:103A900082431D4B533B1A70704710B501460022FC
:103AA000002300204A11012A03D1174C603C2368EF
:103AB00008E0022A03D1144C1034236802E0124CAF
:103AC0001434236801F01F02012494401C400CB1FF
:103AD000012000E0002010BD0B481430006840F0C9
:103AE0008070094914310860704701460020064A79
:103AF000543A12680A400AB1012000E000207047E1
:103B000001495239087070476038024010B50446C8
:103B10009D48844208D101211020FFF73AFF00217F
:103B20001020FFF736FF3EE09848844209D101217A
:103B30004804FFF71DFF00214FF40030FFF718FF86
:103B400031E09348844209D101218804FFF710FF36
:103B500000214FF48020FFF70BFF24E08D488442C2
:103B600009D10121C804FFF703FF00214FF4002011
:103B7000FFF7FEFE17E08848844209D101210805BD
:103B8000FFF7F6FE00214FF48010FFF7F1FE0AE088
:103B90008248844207D101212020FFF7FAFE00214C
:103BA0002020FFF7F6FE10BD2DE9FF4705460E4623
:103BB0000024A14600BFA046B08900B100BF2C8AF6
:103BC00024F44054F08804432C82AC8941F20C6008
:103BD0008443B08831890843718908430443AC8128
:103BE000AC8A24F44074B0890443AC826846FFF781
:103BF000A4FD6548854202D06848854202D1DDF8BF
:103C00000C9001E0DDF80890A88900F4004040B174
:103C100009EBC90000EB091031684900B0FBF1F76E
:103C200007E009EBC90000EB091031688900B0FB1F
:103C3000F1F76420B7FBF0F004012009642101FBD7
:103C40001078A88900F4004040B1322000EBC80091
:103C5000B0FBF1F000F00700044308E0322000EB75
:103C600008106421B0FBF1F000F00F0004432C8138
:103C7000BDE8FF8721B1828942F40052828104E0CD
:103C800082894DF6FF731A4082817047C1F30802A2
:103C90008280704701468888C0F3080070471AB1D7
:103CA000838A0B43838202E0838A8B43838270473B
:103CB000F0B50346002400260025002040F66A17D0
:103CC000B94200D100BF1846C1F3421401F01F06EB
:103CD000012707FA06F5012C01D10C3004E0022C73
:103CE00001D1103000E014301AB107682F4307608B
:103CF00002E00768AF430760F0BD02460020B1F55F
:103D0000007F00D100BF13880B400BB1012000E001
:103D10000020704770B502460024002300250020D3
:103D200040F66A16B14200D100BFC1F3421501F05E
:103D30001F03012606FA03F3012D02D196893340B1
:103D400006E0022D02D1168A334001E0968A334004
:103D50000C12012606FA04F41688344013B10CB193
:103D6000012000E0002070BD10B50022002340F6C5
:103D70006A14A14200D100BF0A1201249440A3B2E8
:103D8000DC43048010BD00000010014000440040EE
:103D900000480040004C004000500040001401402A
:103DA00010B50446FE48844208D101210846FFF7B9
:103DB000F0FD00210120FFF7ECFD9DE0B4F1804F04
:103DC00008D101210846FFF7D3FD00210120FFF7AC
:103DD000CFFD91E0F348844208D101210220FFF792
:103DE000C7FD00210220FFF7C3FD85E0EE488442B5
:103DF00008D101210420FFF7BBFD00210420FFF7BB
:103E0000B7FD79E0E948844208D101210820FFF795
:103E1000AFFD00210820FFF7ABFD6DE0E4488442D0
:103E200008D101211020FFF7A3FD00211020FFF78A
:103E30009FFD61E0DF48844208D101212020FFF787
:103E400097FD00212020FFF793FD55E0DA488442DA
:103E500008D101210220FFF79CFD00210220FFF77D
:103E600098FD49E0D548844209D101210804FFF7B3
:103E700090FD00214FF48030FFF78BFD3CE0D048EF
:103E8000844209D101214804FFF783FD00214FF44A
:103E90000030FFF77EFD2FE0CA48844209D101219E
:103EA0008804FFF776FD00214FF48020FFF771FDB5
:103EB00022E0C548844208D101214020FFF758FD87
:103EC00000214020FFF754FD16E0C048844208D18D
:103ED00001218020FFF74CFD00218020FFF748FDE5
:103EE0000AE0BB48844207D101218015FFF740FD5D
:103EF0000021A015FFF73CFD10BD00220288A84B51
:103F000098420ED0AC4B98420BD0B0F1804F08D005
:103F1000A44B984205D0A44B984202D0A34B9842A0
:103F200004D14FF68F731A404B881A43A04B984226
:103F300007D0A04B984204D04FF6FF431A400B899C
:103F40001A4302804B68C3620B880385944B9842E6
:103F500002D0994B984201D18B7A03860123838248
:103F600070474FF0FF3141600021018001814180A5
:103F7000817270470185828270470A46002101885C
:103F80004FF68F73194011430180704741627047AB
:103F9000C16270470146486A70470146088D704704
:103FA00021B1028842F00202028004E002884FF64A
:103FB000FD731A400280704721B1028842F004026A
:103FC000028004E002884FF6FB731A4002807047BB
:103FD00021B1028842F08002028004E002884FF69C
:103FE0007F731A400280704702884FF6F7731A40B9
:103FF000028002880A430280704702884FF6FF431E
:104000001A40028002880A430280704721B1028868
:1040100042F00102028004E002884FF6FE731A406B
:104020000280704770B5002400220023058C4FF6F3
:10403000FE7635400584028C8388048B4FF68F759D
:104040002C40B51E2C400D882C43751E2A408D89AE
:104050002A434D882A43524DA84202D0564DA842C9
:1040600013D14FF6F7752A40CD892A434FF6FB75D9
:104070002A408D882A434FF6FF652B404FF6FF55A7
:104080002B400D8A2B434D8A2B43838004838D68FC
:104090004563028470BD70B5002400220023058CA6
:1040A0004FF6EF7635400584028C8388048B48F602
:1040B000FF752C404FF6FF452C400D884FF6FF76DC
:1040C00006EA05252C434FF6DF752A408D8906EA5E
:1040D00005152A434D8806EA05152A43304DA842A6
:1040E00002D0354DA8421DD14FF67F752A40CD89AB
:1040F0004FF6FF7606EA05152A434FF6BF752A40AC
:104100008D8806EA05152A434FF6FF352B404FF2FE
:10411000FF752B400D8A06EA85052B434D8A06EA7A
:1041200085052B43838004838D688563028470BD7D
:1041300070B5002400220023058C4FF6FF66354041
:104140000584028C8388848B4FF68F752C404FF644
:10415000FC752C400D882C434FF6FF552A408D8965
:104160004FF6FF7606EA05252A434D8806EA05251F
:104170002A430B4DA84202D00F4DA84238D14FF22E
:10418000FF752A40CD894FF6FF7606EA05252A43BA
:104190004FF6FF352A408D8806EA05252A4319E0A7
:1041A000000001400004004000080040000C0040F6
:1041B0000010004000140040000401400040014095
:1041C000004401400048014000180040001C00402D
:1041D000002000404EF6FF752B404DF6FF752B403A
:1041E0000D8A06EA05152B434D8A06EA05152B4371
:1041F000838084838D68C563028470BD70B500229E
:1042000000230024058C4EF6FF7635400584038C90
:104210008488828B48F6FF752A404FF6FF452A4076
:104220000D884FF6FF7606EA05252A434DF6FF7501
:104230002B408D8906EA05352B434D8806EA053566
:104240002B43FE4DA84202D0FD4DA84208D14BF6AB
:10425000FF752C400D8A4FF6FF7606EA85152C4334
:10426000848082838D680564038470BD0021018091
:104270004180818081608181C1810182418270475A
:1042800070B50346002000241846183001258D40E3
:10429000ACB21D8CA5431D8409B108290AD100EBDD
:1042A000610005684FF68F76354005600568154357
:1042B00005600FE00D1FC5F34E052844056848F65C
:1042C000FF763540056005684FF6FF7606EA022660
:1042D0003543056070BD4163704781637047C163BA
:1042E0007047016470470A460021018B4FF68F73B7
:1042F00019401143018370470A460021018B48F69B
:10430000FF7319404FF6FF7303EA02231943018339
:1043100070470A460021818B4FF68F731940114375
:10432000818370470A460021818B48F6FF7319404C
:104330004FF6FF7303EA02231943818370470A464D
:104340000021018B4FF6F773194011430183704729
:104350000A460021018B4FF2FF7319404FF6FF739D
:1043600003EA02231943018370470A460021818B27
:104370004FF6F77319401143818370470A460021B5
:10438000818B4FF2FF7319404FF6FF7303EA02234C
:104390001943818370470A460021018B4FF6FB7356
:1043A00019401143018370470A460021018B4FF6E3
:1043B000FF3319404FF6FF7303EA022319430183C9
:1043C00070470A460021818B4FF6FB731940114359
:1043D000818370470A460021818B4FF6FF331940D5
:1043E0004FF6FF7303EA02231943818370470A469D
:1043F0000021018B4FF67F731940114301837047F1
:104400000A460021018BC1F30E014FF6FF7303EA48
:1044100002231943018370470A460021818B4FF61E
:104420007F7319401143818370470A460021818BB5
:10443000C1F30E014FF6FF7303EA02231943818390
:1044400070470A460021018C4FF6FD731940114355
:10445000018470470A460021018C4FF6F77319401A
:104460001143018470470A460021018C4FF6DF7327
:1044700019404FF6FF7303EA021319430184704792
:104480000A460021018C4FF67F7319404FF6FF73E7
:1044900003EA02131943018470470A460021018C84
:1044A0004FF6FF5319404FF6FF7303EA02231943F7
:1044B000018470470A460021018C4FF2FF731940B6
:1044C0004FF6FF7303EA02231943018470470A463B
:1044D0000021018C4DF6FF7319404FF6FF7303EA7C
:1044E000023319430184704730B5002301248C4006
:1044F000A3B2048C9C430484048C02FA01F5ADB28F
:104500002C43048430BD30B5002304248C40A3B276
:10451000048C9C430484048C02FA01F5ADB22C4354
:10452000048430BD828B4FF2FF331A408283828B2A
:104530004FF6FF7303EA01231A4382837047F0B5F5
:104540000C461546002100220026078C4EF6FF7C03
:1045500007EA0C070784818B028C4FF6FF7707EA86
:10456000043640F6FF4739404FF6FF7707EA052744
:1045700039434FF6FF7707EA0337394345F6FF77AC
:104580003A4046F480573A4381830284F0BD828BDF
:104590004FF6F3731A408283828B0A4382837047FB
:1045A000F0B50C461546002100220026078C4FF678
:1045B000FF6C07EA0C070784818B028C4FF6FF77AC
:1045C00007EA04264FF60C7739404FF6FF7707EAE3
:1045D00003172F4339434FF2FF573A4046F4807791
:1045E0003A4381830284F0BD028B4FF2FF331A40BD
:1045F0000283028B4FF6FF7303EA01231A430283FF
:104600007047F0B50C461546002100220026078CA5
:104610004FF6EF7C07EA0C070784018B028C4FF6FC
:10462000FF7707EA041640F6FF4739404FF6FF7759
:1046300007EA033739434FF6FF7703E000000140F4
:104640000004014007EA052739434FF65F773A40F7
:1046500046F010073A4301830284F0BD028B4FF607
:10466000F3731A400283028B0A4302837047F0B54A
:104670000C46154600210022068C4FF6FE773E4080
:104680000684018B028C4FF60C7631407E1C06EAC4
:1046900003162E4331434FF6F576324044F00106BF
:1046A000324301830284F0BD70B505460C46208874
:1046B00050B92389A28861882846FFF7D8FFE1888E
:1046C0002846FFF7CBFF25E0208804280AD123895C
:1046D000A28861882846FFF794FFE1882846FFF703
:1046E00083FF17E0208808280AD12389A2886188DF
:1046F0002846FFF755FFE1882846FFF748FF09E005
:104700002389A28861882846FFF719FFE188284697
:10471000FFF708FF70BD00210180418001218180E9
:104720000021C180018170472DE9F04105460C460A
:1047300000260127608808B9022600E00026A0882C
:10474000012801D1022700E001272088A0B9238990
:10475000A28861882846FFF78AFFE1882846FFF78C
:104760007DFF23893A4631462846FFF74AFFE18814
:104770002846FFF739FF13E02389A288618828467D
:10478000FFF73FFFE1882846FFF72EFF23893A46CF
:1047900031462846FFF76BFFE1882846FFF75EFFAA
:1047A000BDE8F0810146486B70470146886B704751
:1047B0000146C86B70470146086C70470A884B88F1
:1047C0001A438B881A43CB881A430B891A434B89A7
:1047D0001A438B891A43A0F84420704700210180B6
:1047E00041808180C180018141818181704731B1E7
:1047F000B0F8442042F40042A0F8442005E0B0F8AC
:104800004420C2F30E02A0F84420704721B18288F0
:1048100042F00402828004E082884FF6FB731A4063
:104820008280704721B1828842F00102828004E0D8
:1048300082884FF6FE731A40828070471AB18389CE
:104840000B43838102E083898B438381704781829C
:10485000704702460020138A0B400BB1012000E094
:1048600000207047CA430282704730B502460020DC
:1048700000230024158A05EA0103958905EA01044D
:1048800013B10CB1012000E0002030BDCA43028208
:10489000704741EA0203A0F8483070471AB1838993
:1048A0000B43838102E083898B438381704721B16D
:1048B000828842F00802828004E082884FF6F77313
:1048C0001A408280704701894FF6F87211400181C9
:1048D00070470A46002101894FF68F731940114332
:1048E0000181704730B504460D4629462046FFF742
:1048F000F0FF208940F00700208130BD2DE9F04114
:1049000004460D4616461F46602D06D13B46012241
:1049100031462046FFF775FE05E03B460122314651
:104920002046FFF7A4FE29462046FFF7D2FF208944
:1049300040F007002081BDE8F08130B50C46002131
:104940000189C9B24FF6FF7505EA032515432543D2
:104950002943018130BD2DE9F04105460E46174639
:104960009846002443463A4631462846FFF7E5FF7D
:104970002C894FF6F870044044F007044FF68F700E
:10498000044044F070042C81BDE8F081F0B5044689
:104990000D4616461F463B46324629462046FFF73F
:1049A000CCFF208940F480402081F0BD82884FF602
:1049B0008F731A40828082880A43828070470289FE
:1049C0004FF6F8731A40028102890A430281704748
:1049D00002894FF67F731A40028102890A430281DD
:1049E0007047F0B50C4615461E46002100220023F4
:1049F0000189028B038C4FF6F877394021434FF63B
:104A0000FC473A4040F201173A434FF6DD773B400E
:104A10004FF6FF7707EA06172F433B4301810283D6
:104A20000384F0BD21B1828842F08002828004E0DC
:104A300082884FF67F731A4082807047A0F850102A
:104A40007047000010B50446C248844209D10121D4
:104A50004805FEF78DFF00214FF40010FEF788FF98
:104A600018E0BD48844209D101218805FEF780FF86
:104A700000214FF48000FEF77BFF0BE0B748844233
:104A800008D10121C805FEF773FF00214FF4000093
:104A9000FEF76EFF10BD2DE9FF4704460D460026C8
:104AA000B1460427DFF8B882A6884FF6C0700640EA
:104AB0006846FEF742FEDDF80880AA48B8FBF0F031
:104AC0001FFA80F946EA0906A68020884FF6FE7193
:104AD000084020800026A449286888420CD828680D
:104AE0004000B8FBF0F087B2042F00DA04273E4301
:104AF00009F10100208427E0E8884BF6FF71884225
:104B000006D1286800EB4000B8FBF0F087B209E05E
:104B1000286800EBC00101EB0010B8FBF0F087B291
:104B200047F48047C7F30B0008B947F0010747F483
:104B3000004006434FF4967009FB00F04FF47A7181
:104B400090FBF1F0401C2084A683208840F00100F7
:104B5000208026884FF6F5300640A88869890843EA
:104B600006432680A889298908432081BDE8FF875C
:104B700021B1028842F00102028004E002884FF66F
:104B8000FE731A400280704721B1028842F480729D
:104B9000028004E002884FF6FF631A4002807047EB
:104BA00021B1028842F40072028004E002884FF6CC
:104BB000FF531A400280704712B141F0010101E039
:104BC00001F0FE010182704721B1028842F4806247
:104BD000028004E002884FF6FF331A4002807047DB
:104BE000018270470146088AC0B2704721B102882D
:104BF00042F48052028004E002884EF6FF731A40AD
:104C000002807047B1F5006F04D1028842F400625F
:104C1000028004E002884FF2FF731A40028070475E
:104C200021B1028842F02002028004E002884FF69F
:104C3000DF731A40028070470146088B00127047EC
:104C400021B1828842F40062828004E082884FF2BF
:104C5000FF731A408280704721B1828842F48052EB
:104C6000828004E082884EF6FF731A40828070478B
:104C700008B5024600200090009200980844009079
:104C80000098008808BD1AB183880B43838002E036
:104C900083888B438380704770B5024600240025CB
:104CA00000230020958A138B1B0445EA030626F097
:104CB0007F4404EA01068E4201D1012000E0002079
:104CC00070BD10B501460020002300228B8A0A8B9C
:104CD000120443EA020424F07F4010BD0CB50246E2
:104CE000002000230193009300920B0F019321F009
:104CF0007F41019B1BB1009B1433009303E0090C1F
:104D0000009B18330093009B1B680B400BB10120E4
:104D100000E000200CBD002221F07F42D3438382BB
:104D2000704730B5024600200023948801F0E0650A
:104D300004EA154321F07F41948A0C4014B10BB171
:104D4000012000E0002030BD002221F07F42D3434B
:104D5000838270470054004000580040005C0040CF
:104D600000127A0040420F00A0860100016821F085
:104D7000010101600021016041608160C160016149
:104D800021214161DB49884204D13D21D94A103AB1
:104D900091608CE0D7491831884205D14FF4746195
:104DA000D44A103A916082E0D2493031884205D12C
:104DB0004FF47411CF4A103A916078E0CD494831F0
:104DC000884205D14FF07461CA4A103A91606EE092
:104DD000C8496031884204D1C749C64A103AD160F7
:104DE00065E0C4497831884204D1C449C14A103AC7
:104DF000D1605CE0BF499031884204D1C049BD4ACE
:104E0000103AD16053E0BB49A831884205D14FF038
:104E10003D51B84A103AD16049E0BA49884204D1BC
:104E20003D21B84A083A116041E0B649183188423C
:104E300005D14FF47461B34A083A116037E0B149C3
:104E40003031884205D14FF47411AE4A083A1160EE
:104E50002DE0AC494831884205D14FF07461A94A30
:104E6000083A116023E0A7496031884204D1A24981
:104E7000A44A121F11601AE0A2497831884204D175
:104E80009E49A04A121F116011E09E49903188424C
:104E900004D19B499B4A121F116008E09949A8312F
:104EA000884204D14FF03D51964A121F116070475D
:104EB00010B500220268944B1A40CC680B6823435B
:104EC0004C6923438C692343CC6923430C6A2343F5
:104ED0004C6A23438C6A23434C6B23438C6B2343E0
:104EE0001A430260426922F00702D1E90B342343DE
:104EF0001A4342610B6943604B6883608B68C360EF
:104F000010BD0021016041608160C16001614161AB
:104F10008161C161016241628162C1620163416379
:104F20008163704721B1026842F00102026003E030
:104F3000026822F001020260704721B1026842F467
:104F40000042026003E0026822F4004202607047FF
:104F500021B1026842F02002026003E0026822F000
:104F6000200202607047416070470146486880B285
:104F7000704722B1036843F40023036003E0036831
:104F800023F4002303600161704721B1026842F4F9
:104F90008022026003E0026822F4802202607047EF
:104FA0000AB1016100E0C1607047014600200A6853
:104FB00002F400220AB1012000E0002070470146FF
:104FC00000200A6802F001020AB1012000E000207E
:104FD0007047014600204A6902F03800704730B53A
:104FE00003460A4600200024464DAB4202D2414906
:104FF000103901E04349103902F000550DB14C68F9
:1050000000E00C68414D2C4004EA02050DB101207E
:1050100000E0002030BD02463A4B9A4202D23548A9
:10502000103801E03748103801F000531BB1374BFE
:105030000B40C36002E0354B0B408360704710B5F6
:1050400001F080034BB122B1436943F08003436117
:1050500003E0436923F08003436180290BD02AB128
:10506000036801F01E042343036004E0036801F0B9
:105070001E04A343036010BD70B502460020002447
:105080000025204EB24202D21A4B103B01E01D4BCC
:10509000103B1F4E0E4036B11E2606EAD12416687C
:1050A00006EA040502E0566906F0800501F00056A4
:1050B0000EB15C6800E01C68144E344004EA01063E
:1050C00016B10DB1012000E0002070BD02460D4B6D
:1050D0009A4202D20748103801E00A48103801F01D
:1050E00000531BB1094B0B40C36002E0074B0B4060
:1050F00083607047106002403D000020400F002098
:1051000000003D20106402403F801CF07D0F7D0FA9
:105110003C0F3C0F10B50446F748844208D10121EA
:105120008014FEF736FC0021A014FEF732FC16E0D6
:10513000F248844208D101210014FEF719FC002135
:105140002014FEF715FC0AE0ED48844207D1012146
:10515000C013FEF70DFC0021E013FEF709FC10BDA3
:1051600010B50022028802F441520B884C88234378
:105170008C882343CC8823430C8923434C892343C5
:105180008C892343CC8923431A430280838B4FF2BB
:10519000FF74234083830B8A038210BD2DE9F04FF7
:1051A0000025022300240127002200269446904671
:1051B0009146B0F81CA04FF2400B0AEA0B0AA0F887
:1051C0001CA04FF0020AA0F820A0858BD1F808A0FF
:1051D000BAF1020F01D100BF6CE0B1F804A0BAF13E
:1051E000000F01D1012700E00227DFF818A3DAF849
:1051F00000A00AF4000ABAF1000F09D0DFF804A3F6
:10520000DAF800A02AF4000ADFF8F8B2CBF800A020
:10521000DFF8F0A20AF17C0ADAF800A0CAF38818D5
:10522000DFF8E0A20AF17C0ADAF800A0CAF30279FA
:10523000DFF8D0A2AAF1040ADAF800A00AF03F0CC5
:10524000DFF8C4A2BAFBFCFA0AFB08FABAFBF9F6CB
:10525000B1F806A0BAF5007F0ED14FEA162A0AEB84
:105260008A0A4FEA4A0AD1F808B0BAFBFBFA0AF1F7
:10527000050A1FFA8AF20FE04FEA471AB6FBFAFA5C
:105280000AEB8A0A4FEA4A0AD1F808B0BAFBFBFADD
:105290000AF1050A1FFA8AF24FF00A0AB2FBFAF283
:1052A00002F00104A2EB040ACAF34F034FF6FF7A9F
:1052B0000AEA0424022B01DBFF2B01DD0223002478
:1052C000B1F806A04AEA040A4AEA030AA0F820A0B4
:1052D000B1F804A0B1F80CB04AEA0B0AB1F802B078
:1052E0004AEA0B0AB1F800B04AEA0B0A4AF4006A2B
:1052F0004AEA05058583BDE8F08F002101804180E1
:105300008180C180018141818181C1810721018228
:1053100070470021018041808180C180022181602D
:1053200000218181704721B1028842F04002028051
:1053300004E002884FF6BF731A400280704721B123
:10534000828B42F48062828304E0828B4FF6FF33CB
:105350001A408283704702884FF2FF731A4002801E
:1053600002880A4302807047B1F5804F04D1028859
:1053700042F48042028004E002884BF6FF731A4038
:10538000028070474FF6FF62914204D0028842F4D7
:105390008072028004E002884FF6FF631A400280A8
:1053A000704721B1828842F00402828004E0828842
:1053B0004FF6FB731A408280704721B1828842F019
:1053C0001002828004E082884FF6EF731A408280D8
:1053D000704730B500220023848B4FF240052C40EB
:1053E000848302240484828B0C88B4F5007F01D06E
:1053F0000C8814B94FF4807308E00C88B4F5407F32
:1054000003D00C88B4F5807F00D100238C888D896F
:105410002C434D882C431C4344F400642243828374
:1054200030BD0146888970478181704721B102886B
:1054300042F40052028004E002884DF6FF731A40E5
:1054400002807047018841F4805101807047024614
:105450000020012901D0108B00E0908A704701469E
:10546000088A70471AB183880B43838002E08388DF
:105470008B438380704730B5002400230C11012535
:10548000A540ABB21AB185881D43858002E08588AE
:105490009D43858030BD0246002013890B400BB12F
:1054A000012000E000207047CA4302817047F0B538
:1054B0000246002000240023002501F00F070126EA
:1054C000BE40B4B20B1101269E40B3B2968806EAE4
:1054D00003051689264016B10DB1012000E0002019
:1054E000F0BD10B5002201F00F040123A3409AB2D1
:1054F000D343038110BD000000300140003800405C
:10550000003C00400838024000127A0010B501212A
:105510000802FEF73EFA00214FF48070FEF739FAD8
:1055200010BD30B50246002000235068F84C2040E2
:105530000D790C6844EA0524204350609068F54CCE
:105540002040D1E903542C438D682C434D7944EA23
:10555000450420439060D06A20F470000C7D641EE6
:10556000E4B2234340EA0350D06230BD0021016021
:10557000017141718160C160016101210175704754
:105580000021E54A1168E54A1140D0E900231A4399
:1055900083681A43C3681A431143E14AC2F80413EB
:1055A00070470021016041608160C160704721B196
:1055B000826842F00102826003E0826822F0010208
:1055C000826070470A4600214168D64B194011435A
:1055D000416070474162826270470A46002141681B
:1055E00021F01F0111434160704738B1CA49096871
:1055F00041F40001CA4AC2F8041306E0C64909682A
:1056000021F40001C64AC2F80413704738B1C249F8
:10561000096841F48001C24AC2F8041306E0BE4999
:10562000096821F48001BE4AC2F804137047F0B53E
:1056300004460D4600200021092D11DDE068A5F18A
:105640000A0606EB4607072606FA07F18843A5F186
:105650000A0606EB460603FA06F10843E0600CE092
:10566000206905EB4507072606FA07F1884305EB95
:10567000450603FA06F108432061072A0FDA606B3A
:10568000561E06EB86071F2606FA07F18843561EAC
:1056900006EB860605FA06F10843606322E00D2A50
:1056A0000FDA206BD61F06EB86071F2606FA07F1D6
:1056B0008843D61F06EB860605FA06F108432063E9
:1056C00010E0E06AA2F10D0606EB86071F2606FA37
:1056D00007F18843A2F10D0606EB860605FA06F1EE
:1056E0000843E062F0BD816841F08041816070470D
:1056F000014600208A6802F480020AB1012000E01D
:105700000020704721B1826842F48062826003E029
:10571000826822F480628260704721B1826842F020
:105720000202826003E0826822F002028260704717
:1057300010B50A4600210023416821F46041531E40
:1057400041EA4331416010BD21B1426842F4006238
:10575000426003E0426822F4006242607047014602
:10576000C86C80B270476C48001D0068704721B15A
:10577000826842F48072826003E0826822F4807260
:105780008260704721B1826842F40072826003E057
:10579000826822F400728260704738B15E490968FD
:1057A00041F400515E4AC2F8041306E05A49096800
:1057B00021F400515A4AC2F804137047F0B5044668
:1057C0001546002000220026092911DDE068A1F11C
:1057D0000A0707EB470C072707FA0CF29043A1F1E1
:1057E0000A0707EB470703FA07F21043E0600CE0F3
:1057F000206901EB410C072707FA0CF2904301EBFB
:10580000410703FA07F210432061A06BC0F3015671
:10581000EF1C06F1010CA7EB0C0707EB870C1F2709
:1058200007FA0CF29043EF1C06F1010CA7EB0C07F2
:1058300007EB870701FA07F21043A063F0BD10B52C
:105840000A4600210023816B21F44011531E41EAD6
:105850000351816310BD08B5002300930090009BA5
:105860000B440093009B1A6008BD0A460021816822
:1058700021F470211143816070470A46002181683C
:1058800021F44011114381607047816841F4800127
:1058900081607047014600208A6802F480020AB1E4
:1058A000012000E00020704721B1426842F480628C
:1058B000426003E0426822F480624260704721B196
:1058C000426842F48052426003E0426822F480520F
:1058D0004260704708B5024600200090009201F136
:1058E0002800009B184400900098006880B208BD12
:1058F00010B50B460021D9B2012404FA01F11AB106
:1059000044680C43446002E044688C43446010BD2A
:10591000FFFEFFFCFDF7FFC004230140E030FCFF69
:1059200000200140FFFD3FFF0246002013680B40AE
:105930000BB1012000E000207047CA4302607047AD
:1059400070B502460020002300240B125568012682
:105950008E4005EA060415681D4015B10CB1012002
:1059600000E0002070BD00220A12D343036070479C
:1059700010B50446FE48844209D101214806FDF7CE
:10598000F7FF00214FF00070FDF7F2FF08E0012162
:105990008806FDF7EDFF00214FF08060FDF7E8FF7E
:1059A00010BD30B5024600200023146824F0020424
:1059B0001460146844F00104146000E05B1C546837
:1059C00004F001041CB94FF6FF74A342F6D15468E9
:1059D00004F001040CB900206CE08C79012C04D196
:1059E000146844F08004146003E0146824F0800418
:1059F0001460CC79012C04D1146844F04004146084
:105A000003E0146824F0400414600C7A012C04D1E3
:105A1000146844F02004146003E0146824F02004A7
:105A200014604C7A012C04D1146844F01004146002
:105A300003E0146824F0100414608C7A012C04D163
:105A4000146844F00804146003E0146824F00804A7
:105A50001460CC7A012C04D1146844F0040414605E
:105A600003E0146824F0040414608C78A407CD7853
:105A700044EA05640D7944EA05444D7944EA055445
:105A80000D886D1E2C43D461146824F00104146049
:105A9000002300E05B1C546804F001041CB14FF6C5
:105AA000FF74A342F6D1546804F001040CB1002045
:105AB00000E0012030BD10B50021837A012202FAF6
:105AC00003F1AC4A126842F00102AA4B1A60A94ADB
:105AD0001C3212688A43A74B1C331A60027BCAB976
